:0400000009EF01F013
:100008005D82FACF18F0FBCF19F0E9CF1AF0EACFEA
:100018001BF0E1CF1CF0E2CF1DF0D9CF1EF0DACFF4
:100028001FF0F3CF20F0F4CF21F0F6CF22F0F7CF76
:1000380023F0F8CF24F0F5CF25F05DC026F05EC0A0
:1000480027F05FC028F060C029F0F0B6F0A0ABD070
:10005800F090620EE2EC26F02B6E2BA011D04E90A1
:100068004EBC4E9C000E0101346F000E336F4EA241
:1000780007D0480EE2EC26F02A6E2AB04E844E9243
:100088002BA68AD02D68000E2E6E010E2E6401D08C
:1000980010D02E50500D200EF324D96E020EF420ED
:1000A800DA6EDF50D8A403D02EC02DF002D02E2A4D
:1000B800ECD7020E2D606BD0040E036E730EF7ECB6
:1000C80026F02D50500D200EF324D96E020EF42088
:1000D800DA6E030E046E000E036ECFEC25F0020FED
:1000E800DF6E2D50500D200EF324D96E020EF42031
:1000F800DA6E4F0EDF6040D04E8A010E2E6E1AD097
:100108002D50500D200E136E020E146EF350132650
:10011800F45014222E501324D96E000E1420DA6ED7
:10012800000E2E24036E046A030E0422CFEC25F081
:10013800DF6E2E2A2E50136E146A2D50500D200E8D
:10014800F324D96E020EF420DA6EDF50156E166AAB
:10015800020E1526000E16221350155C1650800A42
:10016800176E1450800A1758D8B0CAD7010E036EFC
:100178001B0EF7EC26F005D0010E036E1B0EF7ECF4
:1001880026F0000E036E730EF7EC26F005D0010E74
:10019800036E1B0EF7EC26F02BA805D0800E036E1D
:1001A800590EF7EC26F09EB09DA007D09E904F2ADE
:1001B8004F50D8A402D001013A2B5CEC27F029C09B
:1001C80060F028C05FF027C05EF026C05DF025C053
:1001D800F5FF24C0F8FF23C0F7FF22C0F6FF21C0B7
:1001E800F4FF20C0F3FF1FC0DAFF1EC0D9FF1DC0F7
:1001F800E2FF1CC0E1FF1BC0EAFF1AC0E9FF19C0FB
:0E020800FBFF18C0FAFF5D92110049EF24F0D1
:100F000000C0030000A005000060090000E0100020
:100F100000E01F0000E03D0000E0790000E0F1008B
:100F200000E0E10100E0C10300E0810700E0010F03
:100F300000E0011E00443D1B000DB4150001000837
:100F400000400000020010008001000A006400E878
:100F500003102701001000000100104372E96174C2
:100F6000696F6E206427756E6520636F6E6E65789D
:100F7000696F6E003031323334353637383941429B
:100F800043444546003031323334353637383961E1
:100F90006263646566005258204D657373616765CE
:100FA000733A20253364005458204D65737361678C
:100FB00065733A20253364004A6F696E20686F7349
:100FC00074202E2E2E004D65737361676520726547
:100FD0006375001B5B33316D001B5B3244001B5B90
:100FE000324A001B5B4F4B001B5B73001B5B7500A1
:030FF000410000BD
:100FF40070EC11F00009D8B48AEF10F041B412007B
:10100400000E0101006F2FA404D00001B06BB02BBF
:1010140002D00001B06B010100510001B019FC0BBA
:10102400B0190101006F2FA602D0008702D0010180
:1010340000972F50030BE806D8A404D00001B06B2E
:10104400B02B02D00001B06BB03BB047010100519E
:101054000001B019DF0BB0190101006F2FAE02D0EF
:10106400008D02D00101009D2FAE0AD037B002D00E
:10107400009F02D00101008F30C003F131C004F1A0
:1010840038C001F139C002F136C009F135C008F1A8
:1010940041947BEF10F00A0E346002D087EF10F019
:1010A40020EE02F03250D9263350DA22DF5000010C
:1010B400CD6F20EE03F03250D9263350DA22DF50C0
:1010C400CE6F20EE04F03250D9263350DA22DF50AE
:1010D400D06F20EE05F03250D9263350DA22DF509B
:1010E400D16F20EE06F03250D9263350DA22DF5089
:1010F400D26F20EE07F03250D9263350DA22DF5077
:10110400D36F20EE08F03250D9263350DA22DF5064
:10111400D56F20EE09F03250D9263350DA22DF5051
:10112400D66F000E0101006F2FA602D0008702D0F7
:10113400010100970051030B0009D8A406D0000157
:10114400D02902E1D129D8A4FDD052500001D519EB
:101154000CE15350D619D8A408D05050D21905E147
:101164005150D319D8B487EF10F032C0D9FF33C02F
:10117400DAFF010EDF643FD032C0D9FF33C0DAFF9B
:10118400DF06000E4A6E000ED86F14D0D851010D40
:10119400F3503224D96EF4503320DA6E4A50010DE4
:1011A400960EF324E16E010EF420E26EDFCFE7FF2A
:1011B4004A2AD82B3450D85DD8A0E8D72FC03AF0AB
:1011C40050C03FF051C040F037C03EF0140E69ECFF
:1011D40022F020EE3AF000EE7EF0060EDBCFEBFFBD
:1011E400E806FCE2960E0001856F010E866F4AC088
:1011F40087F0C9EC18F0000E0001D86F030ED86513
:1012040001D036D0D851080D030EF326000EF42277
:10121400000EF324D96E020EF420DA6EDF50D8B437
:1012240025D0D851080D000EF324D96E020EF420F7
:10123400DA6ED551DE181AE1D651DE18D8A416D0CC
:1012440020EE0AF03250D9263350DA22D851080D54
:10125400020EF326000EF422000EF324E16E020EB9
:10126400F420E26EDE50E618D8B402D0D82BC6D7EC
:10127400040ED86102D087EF10F0000ED86F030E71
:10128400D86501D011D0D851080D030EF326000EF5
:10129400F422000EF324D96E020EF420DA6EDF502D
:1012A400D8B402D0D82BEBD7040ED86145D0D8518E
:1012B400080D000EF324D96E020EF420DA6ED5C0A8
:1012C400DEFFD6C0DDFF20EE0AF03250D9263350BF
:1012D400DA22D851080D020EF326000EF422000E75
:1012E400F324E16E020EF420E26EDFCFE7FFD85163
:1012F400080D030EF326000EF422000EF324D96E1B
:10130400020EF420DA6E030EDF6E4BEC25F00001C2
:10131400D851080D040EF326000EF422000EF32417
:10132400D96E020EF420DA6E60C0DEFF61C0DEFF0B
:1013340062C0DEFF63C0DEFF01010051FC0B010946
:10134400006F6FD050500001CD1903E15150CE19F8
:10135400D8A47AD25250D01903E15350D119D8A449
:1013640073D220EE01F03250D9263350DA22DFA4B2
:1013740058D05BC096F1020E0101976FD2C098F16C
:10138400D3C099F1D5C09AF1D6C09BF150C09CF15D
:1013940051C09DF152C09EF153C09FF120EE0AF05E
:1013A4003250D9263350DA22DF50A06F000EA16FDD
:1013B400300EA26F0D0E4A6E53500001D619D8B4E8
:1013C4000DD0D2C0A4F0D3C0A5F0D5C0A6F0D6C02D
:1013D400A7F0000EA86FB1EC14F021D0000E3A6E05
:1013E4003A8A010E3D6E010E3E6ED50E3B6E000E26
:1013F4003C6ED2C03FF0D3C040F020EE3AF000EE95
:101404007EF0060EDBCFEBFFE806FCE2960E000151
:10141400856F010E866F4AC087F0C9EC18F0010190
:10142400008520EE0BF03250D9263350DA22DF50FB
:10143400D8A4D0D120EE0CF03250D9263350DA2281
:10144400300EDE18D8A49DD1ABD10101C9B340D070
:101454004BEC25F060C0DFF161C0E0F162C0E1F166
:1014640063C0E2F120EE08F03250D9263350DA227C
:10147400DF500101CB6F20EE09F03250D9263350F2
:10148400DA22DF50CC6F000E0001D76F070ED7654C
:1014940001D019D0D751B06FB16B0D0EB027000E2B
:1014A400B123B0513224D96EB1513320DA6ED75101
:1014B400010DCD0EF324E16E010EF420E26EDFCFB8
:1014C400E7FFD72BE3D70101C983C99187EF10F058
:1014D40020EE08F03250D9263350DA22CB51DE18F0
:1014E400D8A40BD020EE09F03250D9263350DA229A
:1014F400CC51DE18D8B487EF10F0CB51CC11D8A45E
:101504005BD0000E0001D76F070ED76501D02BD03A
:10151400D751B06FB16B0D0EB027000EB123B0518F
:101524003224D96EB1513320DA6ED751010DD70E62
:10153400F324E16E010EF420E26EDFCFE7FFD75112
:10154400010DD70EF324D96E010EF420DA6ED751B3
:10155400010D1A0EF324E16E010EF420E26EDFCFCA
:10156400E7FFD72BD1D720EE08F03250D9263350DD
:10157400DA22DF500101D56F20EE09F03250D9266E
:101584003350DA22DF50D66FD5C154F0D6C155F0AE
:1015940050C0E3F151C0E4F1CAEC23F00101CA6F79
:1015A400CA29D8A483D08D0E4B6E54BE4B9035EC13
:1015B40020F00101CA6F7AD00B0E4A6E4A50010D19
:1015C400960EF324D96E010EF420DA6E000EDF6E4F
:1015D4004A2A4A50010D960EF324D96E010EF420C6
:1015E400DA6E110EDF6E4A2A000E0001D76F070E65
:1015F400D76501D02CD0D751B06FB16B0D0EB02789
:10160400000EB123B0513224D96EB1513320DA6EB9
:10161400D751010DD70EF324E16E010EF420E26ED2
:10162400DFCFE7FFD751010DD70EF324D96E010E9A
:10163400F420DA6E4A50010D960EF324E16E010E89
:10164400F420E26EDFCFE7FF4A2AD72BD0D720EE73
:1016540008F03250D9263350DA22DF500101D56F19
:1016640020EE09F03250D9263350DA22DF50D66FFB
:101674004A50010D960EF324D96E010EF420DA6E51
:10168400D5C1DFFF4A2A4A50010D960EF324D96EC4
:10169400010EF420DA6ED6C1DFFF4A2ACB0E000118
:1016A400AE6F010EAF6F86EC23F00101C983C981CF
:1016B40087EF10F0000E0001CC6F070ECC6501D04F
:1016C40019D0CC51B06FB16B0D0EB027000EB12301
:1016D400B0513224D96EB1513320DA6ECC51010DA0
:1016E4001A0EF324E16E010EF420E26EDFCFE7FF61
:1016F400CC2BE3D78D0E4B6E20EE15F03250D9264D
:101704003350DA22DFBE4B9020EE15F03250D9264A
:101714003350DA22DF50546E20EE16F03250D926C0
:101724003350DA22DF50556E50C0E3F151C0E4F17A
:10173400CAEC23F00101CA6FCA29D8B411D0CA5126
:101744000D0D0C0EF326000EF4223B0EF324D96E7D
:10175400010EF420DA6EDF504B6E4B844B8604D0BE
:101764008D0E4B6E54BE4B9035EC20F00101CA6FC8
:10177400CA29D8B402D0C98101D0C991C99387EFCD
:1017840010F020EE0CF03250D9263350DA22DF501C
:10179400100AD8B45AD6010AD8B48CD787EF10F0FF
:1017A40020EE0AF03250D9263350DA220101F751E3
:1017B400DE18D8A487EF10F031510001D51905E1E6
:1017C400010132510001D619D8A487EF10F04196D7
:1017D40087EF10F03450F50F0101076F0B0E322420
:1017E400056F000E3320066FD2C001F1D3C002F1A1
:1017F40020EE08F03250D9263350DA22DE28D8A45D
:1018040014D020EE09F03250D9263350DA22DE28E3
:10181400D8A40BD037B002D0009F02D00101008FB2
:1018240030C003F131C004F107D0008F080E322418
:10183400036F000E3320046F008D0751D8B487EF77
:1018440010F0418487EF10F032C0D9FF33C0DAFFC3
:10185400DF50D8B487EF10F032C0D9FF33C0DAFFBD
:10186400DF06000E4A6E000E0001D86F14D0D85166
:10187400010DF3503224D96EF4503320DA6E4A50FD
:10188400010D960EF324E16E010EF420E26EDFCF1B
:10189400E7FF4A2AD82B3450D85DD8A0E8D7535054
:1018A400D119D8A42BD00101A151D8A427D0300E2E
:1018B400A219D8A423D0000E3A6E3A8A010E3D6EC6
:1018C400010E3E6ED00E3B6E000E3C6ECDC03FF05E
:1018D400CEC040F020EE3AF000EE7EF0060EDBCFF4
:1018E400EBFFE806FCE2960E0001856F010E866FA1
:1018F4004AC087F0C9EC18F087EF10F0CDC0A4F00F
:10190400CEC0A5F0D0C0A6F0D1C0A7F0000E2FB66F
:10191400010E0001A86FB1EC14F0F7D3000E000122
:10192400CA6FCA51B06FB16B040EB027000EB12359
:10193400B0513224D96EB1513320DA6E4D0EDE1817
:10194400D8A4E3D320EE01F03050D9263150DA2266
:10195400DF50C56FC5C0B0F0010EB16FB02B02D01F
:10196400D890B137B02FFCD70001B151BE6F30C051
:10197400D9FF31C0DAFFDF50D8A403D0BE51010132
:1019840036130001CA51B06FB16B060EB027000EBA
:10199400B123B0513224D96EB1513320DA6EC5511E
:1019A400010D120EF324E16E010EF420E26EDFCF7E
:1019B400E7FF41A0AAD338C0E3F139C0E4F130C055
:1019C400D9FF31C0DAFFDF50546E20EE01F0305001
:1019D400D9263150DA22DF50556ECA51010DF35029
:1019E4003224D96EF4503320DA6EDE28D8A48DD395
:1019F400CA51B06FB16B010EB027000EB123B051C4
:101A04003224D96EB1513320DA6EDF50CB6F0A0E17
:101A14004C607BD3CB39030BB06F020EB06175D32E
:101A24004C500E0D000EF324D96E030EF420DA6E22
:101A34005AC0DFFF4C500E0D0B0EF326000EF4229D
:101A4400000EF324D96E030EF420DA6E08C1DFFF12
:101A54004C500E0D0C0EF326000EF422000EF3244F
:101A6400D96E030EF420DA6E09C1DFFF4C500E0D5F
:101A7400090EF326000EF422000EF324D96E030E91
:101A8400F420DA6EE3C1DEFFE4C1DDFF4C500E0D3D
:101A94000D0EF326000EF422000EF324D96E030E6D
:101AA400F420DA6E000EDF6E4C500E0D0D0EF32690
:101AB400000EF422000EF324D96E030EF420DA6E25
:101AC4000301DF8C0001CB31030BB06F4C500E0DC2
:101AD4000D0EF326000EF422000EF324D96E030E2D
:101AE400F420DA6E0301DF500001B019FC0BB019C9
:101AF4000301DF6E0001CBA70ED04C500E0D0D0E6E
:101B0400F326000EF422000EF324D96E030EF42003
:101B1400DA6E0301DF860001CB39030BB06F020ECE
:101B2400B0610ED04C500E0D0D0EF326000EF422B3
:101B3400000EF324D96E030EF420DA6E0301DF8A5B
:101B440003C1D9FF04C1DAFF4C500E0D010EF32678
:101B5400000EF422000EF324E16E030EF420E26E74
:101B6400DFCFE7FF010120EE01F00351D926045134
:101B7400DA224C500E0D020EF326000EF422000E53
:101B8400F324E16E030EF420E26EDFCFE7FF4C5046
:101B94000E0D0D0EF326000EF422000EF324D96E62
:101BA400030EF420DA6E0301DF8E4C2AAED2000E4F
:101BB4000001C06F010E4D6401D0A7D2000ED86F92
:101BC400070ED86501D014D0D851010DF35030243C
:101BD400D96EF4503120DA6ED851010D1A0EF32467
:101BE400E16E010EF420E26EDFCFE7FFD82BE8D7D9
:101BF400C6EC21F00001D46FD429D8A417D04D50DD
:101C0400D8A483D2B70E4B6E50C0E3F151C0E4F1B7
:101C140035EC20F00001D46FD429D8A428D0010ECB
:101C2400C06FFF0E556EFE0E546E8BD0D4510D0D49
:101C34000C0EF326000EF4223B0EF324D96E010E93
:101C4400F420DA6E0101DFA612D00001D4510D0D8B
:101C5400020EF326000EF4223B0EF324D96E010E7D
:101C6400F420DA6EDECF54F0DDCF55F06AD00001F7
:101C7400D429D8B466D0D429546E53C055F050C07A
:101C8400E3F151C0E4F1020E4618D8A43CD020EE92
:101C940001F03250D9263350DA22DFAC34D054C0AC
:101CA400BCF055C0BDF0000E546E010ECF6F070E90
:101CB400CF6501D01FD0CFC055F0CAEC23F000018E
:101CC400BF6FBF29D8A413D0000E546ECFC055F0F7
:101CD400CFC0B0F0010EB16FB02B02D0D890B137A5
:101CE400B02FFCD70001B1510101361303D000011C
:101CF400CF2BDDD7080E0001CF19D8A404D0BCC067
:101D040054F0BDC055F0BF0E4B6E20EE01F03250C2
:101D1400D9263350DA22DFB002D04B90548E35EC02
:101D240020F00001D46FD4510D0D0C0EF326000EDB
:101D3400F4223B0EF324D96E010EF420DA6E010175
:101D4400DF88020E0101966F54C097F155C098F1D7
:101D5400C0C099F1040E4A6E500E00019D6F000E32
:101D64009E6FD4510D0D040EF326000EF4223B0E8B
:101D7400F3249F6F010EF420A06F010EA16F000EDB
:101D8400A26F1EEC22F0C1D120EE03F03250D9260E
:101D94003350DA22DF50D8A47CD020EE01F0325048
:101DA400D9263350DA22DF50526E20EE02F0325040
:101DB400D9263350DA22DF50536E5250D8A420D0A3
:101DC400010E466E46C0B0F00001B0470101375124
:101DD4000001B019F90BB0190101376F53C0B0F00D
:101DE400070E0001B017010EB16FB02B02D0D890CE
:101DF400B137B02FFCD70001B129010136130ED041
:101E0400000E466E46C0B0F00001B04701013751E4
:101E14000001B019F90BB0190101376F520E00011E
:101E2400656F000E666F500E676F000E686FBFEC33
:101E340024F04182BF0E4B6E000E0001D86F070ED6
:101E4400D86501D014D0D851010DF3503024D96E87
:101E5400F4503120DA6ED851010D1A0EF324E16EDC
:101E6400010EF420E26EDFCFE7FFD82BE8D7525003
:101E7400D8A403D0000E556E02D053C055F0000E06
:101E8400546E50C0E3F151C0E4F135EC20F0496EDA
:101E94003CD149685068516854685568540E000133
:101EA400656F000E666F500E676F000E686FBFECB3
:101EB40024F02BD13750D8B416D030C0D9FF31C05C
:101EC400DAFFDF50546E20EE01F03050D926315045
:101ED400DA22DF50556ECAEC23F00001C86FC8291E
:101EE400D8B413D11ED0000E0001D86F070ED865E8
:101EF40001D014D0D851010DF3503024D96EF450D0
:101F04003120DA6ED851010D1A0EF324E16E010E60
:101F1400F420E26EDFCFE7FFD82BE8D7C6EC21F040
:101F2400DCD7C8510D0D0C0EF326000EF4223B0E27
:101F3400F324D96E010EF420DA6E0101DFAAE5D094
:101F440049500001C819D8B40FD0C8510D0D0C0E5A
:101F5400F326000EF4223B0EF324D96E010EF42076
:101F6400DA6E000EDF6ED1D0000ED86F060ED86583
:101F740001D083D0D8510D0D0C0EF326000EF4229F
:101F84003B0EF324D96E010EF420DA6E0101DFAEAC
:101F940063D00001D8510D0D0C0EF326000EF4226F
:101FA4003B0EF324D96E010EF420DA6E0101DFAA90
:101FB40053D049500001D819D8B44ED0000E4A6EFF
:101FC4004A50010D960EF324D96E010EF420DA6EF8
:101FD400030EDF6E4A2A000E3A6E3A8A3A50FC0B20
:101FE40001093A6E010E3D6E010E3E6ED8510D0D83
:101FF4003B0EF324D96E010EF420DA6EDECF3FF0EF
:10200400DDCF40F0D8510D0D020EF326000EF42260
:102014003B0EF3243B6E010EF4203C6E20EE3AF0AE
:1020240000EE7EF0060EDBCFEBFFE806FCE2960E38
:10203400856F010E866F4AC087F0C9EC18F0000E58
:102044000001C76F000EC66FC6290F0EC759D8B05E
:1020540003D0C64BC72BF8D70001D8510D0D0C0E79
:10206400F326000EF4223B0EF324D96E010EF42065
:10207400DA6E000EDF6ED82B79D749685268536840
:1020840050685168520E656F000E666F500E676F90
:10209400000E686FBFEC24F0419237D0020E4D64FD
:1020A40001D033D041A231D020EE01F03250D926F4
:1020B4003350DA225A50DE18D8A427D04650D8B468
:1020C40024D0140E69EC22F00DEC21F01ED032C0A5
:1020D400D9FF33C0DAFFDF50010AD8B468D5030A48
:1020E400D8B452D6010AD8B4E5D6040AD8B4D6D79F
:1020F4000CD02F50030B000AD8B44DEF08F0010A9E
:10210400D8B4E5D7020AD8B409D441A435EC27F0F1
:102114004BEC25F060C0C1F061C0C2F062C0C3F0F6
:1021240063C0C4F0000E0001D86F030ED86501D05F
:1021340052D0D851080D030EF326000EF422000EDF
:10214400F324D96E020EF420DA6EDF50D8B441D0F5
:10215400D851080D040EF326000EF422000EF324C9
:10216400D96E020EF420DA6EDECFB0F0DECFB1F01D
:10217400DECFB2F0DECFB3F0B01FB11FB21FB31F7A
:10218400B02B000EB123B223B323C151B025B46FD9
:10219400C251B121B56FC351B221B66FC451B3213D
:1021A400B76FB75108E1210EB45DA10EB559070E02
:1021B400B659D8A00ED0D851080D030EF326000E40
:1021C400F422000EF324D96E020EF420DA6E000E0F
:1021D400DF6ED82BAAD70101C9A31200C9A153D01D
:1021E4000B0E4A6E4A50010D960EF324D96E010E61
:1021F400F420DA6E000EDF6E4A2A4A50010D960E64
:10220400F324D96E010EF420DA6E110EDF6E4A2A21
:10221400000E0001C96F070EC96501D015D0C95160
:10222400010DCD0EF324D96E010EF420DA6E4A505E
:10223400010D960EF324E16E010EF420E26EDFCF61
:10224400E7FF4A2AC92BE7D74A50010D960EF3241B
:10225400D96E010EF420DA6ECBC1DFFF4A2A4A5050
:10226400010D960EF324D96E010EF420DA6ECCC162
:10227400DFFF4A2AD50EAE6F010EAF6F86EC23F056
:102284000101C9931200DFC1B0F0E0C1B1F0E1C1B6
:10229400B2F0E2C1B3F00001B01FB11FB21FB31F0F
:1022A400B02B000EB123B223B323C151B025B86FB4
:1022B400C251B121B96FC351B221BA6FC451B32114
:1022C400BB6FBB5108E1610EB85DE30EB959160E40
:1022D400BA59D8A012000101C993120081A2F0805A
:1022E4004EA00FD00101345104E1800E335DD8A01B
:1022F40006D0000E346F000E336F4E9002D0334B75
:10230400342B5C68000E0001676F010E676501D015
:1023140010D06751500D200EF324D96E020EF42014
:10232400DA6EDF50D8B403D067C05CF002D0672BFC
:10233400ECD7020E5C6011D3010E686F5C50500D37
:10234400010EF326000EF422200EF324D96E020EA1
:10235400F420DA6E0201DFBC03D0000E0001686FC6
:10236400000E2F6E000E376E5C50500D020EF326D9
:10237400000EF422200EF324D96E020EF420DA6E3D
:10238400DF50CC0B0001666F4DD25C50500D060E31
:10239400F326000EF422200EF324D96E020EF4204C
:1023A400DA6EDE28D8A40FD05C50500D070EF32649
:1023B400000EF422200EF324D96E020EF420DA6EFD
:1023C400DE28D8B42F842F8E6851D8B429D05C501D
:1023D400500D040EF326000EF422200EF324D96EC1
:1023E400020EF420DA6EDF50386E5C50500D050E8C
:1023F400F326000EF422200EF324D96E020EF420EC
:10240400DA6EDF50396E5C50500D080EF326000E64
:10241400F422200EF324306E020EF420316E90D19B
:102424005C50500D080EF326000EF422200EF32407
:10243400D96E020EF420DA6EDF50386E5C50500D07
:10244400090EF326000EF422200EF324D96E020E98
:10245400F420DA6EDF50396E5C50500D0A0E9ED1B6
:102464005C50500D200EF324D96E020EF420DA6E67
:10247400DF50EB0F346E5C50500D120EC5D12F8E11
:102484006851D8B437D05C50500D040EF326000EBA
:10249400F422200EF324D96E020EF420DA6EDF50FB
:1024A400386E5C50500D050EF326000EF422200EFB
:1024B400F324D96E020EF420DA6EDF50396E5C50CC
:1024C400500D0E0EF326000EF422200EF324306E6F
:1024D400020EF420316E5C50500D200EF324D96EA0
:1024E400020EF420DA6EDF50E70F346E5C50500DAC
:1024F400160E8AD15C50500D0E0EF326000EF422F7
:10250400200EF324D96E020EF420DA6EDF50386EFA
:102514005C50500D0F0EF326000EF422200EF3240F
:10252400D96E020EF420DA6EDF50396E5C50500D15
:10253400100EF326000EF422200EF324306E020E49
:10254400F420316E5C50500D200EF324D96E020E2F
:10255400F420DA6EDF50E50F346E5C50500D180E27
:1025640053D12F842F8E010E376E5C50500D040E04
:10257400F326000EF422200EF324D96E020EF4206A
:10258400DA6EDF50386E5C50500D050EF326000EE7
:10259400F422200EF324D96E020EF420DA6EDF50FA
:1025A400396E5C50500D060EF326000EF422200EF8
:1025B400F324306E020EF420316E5C50500D200E68
:1025C400F324D96E020EF420DA6EDF50F50F18D121
:1025D4005C50500D060EF326000EF422200EF32458
:1025E400D96E020EF420DA6EDE28D8A40FD05C5027
:1025F400500D070EF326000EF422200EF324D96E9C
:10260400020EF420DA6EDE28D8B42F842F8E010E49
:10261400376E6851D8A437D05C50500D080EF3269D
:10262400000EF422200EF324D96E020EF420DA6E8A
:10263400DF50386E5C50500D090EF326000EF42264
:10264400200EF324D96E020EF420DA6EDF50396EB8
:102654005C50500D0A0EF326000EF422200EF324D3
:10266400306E020EF420316E5C50500D200EF324B7
:10267400D96E020EF420DA6EDF50F10F346E5C5026
:10268400500D0C0EC1D05C50500D040EF326000EFC
:10269400F422200EF324D96E020EF420DA6EDF50F9
:1026A400386E5C50500D050EF326000EF422200EF9
:1026B400F324D96E020EF420DA6EDF50396E5C50CA
:1026C400500D080EF326000EF422200EF324306E73
:1026D400020EF420316E5C50500D200EF324D96E9E
:1026E400020EF420DA6EDF50F30F346E5C50500D9E
:1026F4000A0E8AD02F8E010E376E6851D8B42FD0AF
:102704005C50500D040EF326000EF422200EF32428
:10271400D96E020EF420DA6EDF50386E5C50500D24
:10272400050EF326000EF422200EF324D96E020EB9
:10273400F420DA6EDF50396E5C50500D0D0E66D603
:102744005C50500D200EF324D96E020EF420DA6E84
:10275400DF50ED0F346E5C50500D100E55D05C50B0
:10276400500D0D0EF326000EF422200EF324D96E24
:10277400020EF420DA6EDF50386E5C50500D0E0EEF
:10278400F326000EF422200EF324D96E020EF42058
:10279400DA6EDF50396E5C50500D0F0EF326000ECA
:1027A400F422200EF324306E020EF420316E58D63B
:1027B4005C50500D060EF326000EF422200EF32476
:1027C400D96E020EF420DA6EDE28D8A40FD05C5045
:1027D400500D070EF326000EF422200EF324D96EBA
:1027E400020EF420DA6EDE28D8B42F845C50500D2B
:1027F400200EF324D96E020EF420DA6EDF50F60FA9
:10280400346E5C50500D080EF326000EF422200E98
:10281400F324326E020EF420336E19D035EC27F017
:10282400000E120000016651080AD8B4C1D7880A04
:10283400D8B497D6080AD8B4CBD6040AD8B45AD791
:10284400440AD8B4A2D5040AD8B419D6E7D75C5040
:10285400500D010EF326000EF422200EF324D96E3F
:10286400020EF420DA6E0201DFA613D035EC27F055
:10287400000E1200FC0E2F162CD02F50FC0B010959
:102884002F6E27D0030E2F1224D035EC27F0000E24
:1028940012005C50500D010EF326000EF422200E9F
:1028A400F324D96E020EF420DA6EDF50070B000118
:1028B400606F616B6151000AD8A4E7D76051000AC8
:1028C400D8B4E0D7010AD8B4D5D7020AD8B4D5D73A
:1028D400DCD7FF0E0001606FFF0E616F5C50500D7E
:1028E400200EF324D96E020EF420DA6EDF50626FEC
:1028F400636B6051622761516323200E646F020E83
:10290400656F62516427635165235C50500DF35029
:102914006425D96EF4506521DA6EDF50366E5C5052
:10292400500D200EF324D96E020EF420DA6EDF501F
:10293400606F5C50500D200E616F020E626FF35099
:102944006127F450622360516125D96E000E622123
:10295400DA6EDF50356E010E1200000E1200000117
:10296400A751070BAC6FAC515318D8A430D0800ECC
:10297400A66502D0000E1200000E3A6E3A8AA8B183
:1029840002D03A9601D03A86A6C054F0A7C055F0BA
:10299400010E3D6E010E3E6E540E3B6E000E3C6EFB
:1029A40050C03FF051C040F020EE3AF000EE7EF00F
:1029B400060EDBCFEBFFE806FCE2960E0001856F06
:1029C400010E866F4AC087F0C9EC18F01200ACC043
:1029D400A9F0010E0001AA6FA92B02D0D890AA3742
:1029E400A92FFCD70001AA51010136150009D8B45A
:1029F4007AD00001AC51010D0A0EF324D96E010EF8
:102A0400F420DA6E020EDF6428D0AC51010D0A0EF8
:102A1400F324D96E010EF420DA6E000EDF6EACC022
:102A2400A9F0010EAA6FA92B02D0D890AA37A92F1A
:102A3400FCD70001AA51FF0A010136170001AC516D
:102A4400010D120EF324D96E010EF420DA6E000E7D
:102A5400DF6E0DEC21F0000E1200000E3A6E3A8A81
:102A64000001A8B102D03A9601D03A86000E546E05
:102A7400ACC055F0010E3D6E010E3E6E540E3B6E21
:102A8400000E3C6E50C03FF051C040F020EE3AF0D2
:102A940000EE7EF0060EDBCFEBFFE806FCE2960EBE
:102AA4000001856F010E866F4AC087F0C9EC18F0EB
:102AB4000009D8A40BD00001AC51010D0A0EF32477
:102AC400D96E010EF420DA6EDF2AC5D70001AC51AD
:102AD400010D0A0EF324D96E010EF420DA6E000EF5
:102AE400DF6E010E1200000E0001AD6F070EAD6522
:102AF40001D0C5D0AD51010D120EF324D96E010ED3
:102B0400F420DA6EDF50A96FACC0AAF0010EAB6FEF
:102B1400AA2B02D0D890AB37AA2FFCD70001AB5117
:102B2400A9150009D8B4A8D0AD51010D0A0EF3249B
:102B3400D96E010EF420DA6E020EDF6456D0AD5168
:102B4400010D0A0EF324D96E010EF420DA6E000E84
:102B5400DF6EADC0A9F0010EAA6FA92B02D0D890E8
:102B6400AA37A92FFCD70001AA51FF0A0101361781
:102B74000001AD51010D120EF324D96E010EF420A3
:102B8400DA6E000EDF6E4650D8B403D00DEC21F09F
:102B94002AD0000E4A6E4A50010D960EF324D96EC7
:102BA400010EF420DA6E070EDF6E4A2A4A50010D38
:102BB400960EF324D96E010EF420DA6E5AC0DFFFAC
:102BC4004A2A0101E369E469E30E00019D6F010EE5
:102BD4009E6F000E9F6F000EA06F010EA16F000E7E
:102BE400A26F1EEC22F0000E1200000E3A6E3A8A1A
:102BF4000001A8B102D03A9601D03A86000E546E74
:102C0400ADC055F0010E3D6E010E3E6E540E3B6E8E
:102C1400000E3C6E50C03FF051C040F020EE3AF040
:102C240000EE7EF0060EDBCFEBFFE806FCE2960E2C
:102C34000001856F010E866F4AC087F0C9EC18F059
:102C44000009D8A40CD00001AD51010D0A0EF324E3
:102C5400D96E010EF420DA6EDF2A000E1200000194
:102C6400AD51010D0A0EF324D96E010EF420DA6E73
:102C7400000EDF6E010E12000001AD2B37D7020EDD
:102C84004618D8B460D0000E3A6E3A8AA8B102D081
:102C94003A9601D03A864604D8B427D0000E0001F3
:102CA400AD6F070EAD6501D01AD001013651D8B40D
:102CB40013D0ADC0A9F0010E0001AA6F000EAB6FD6
:102CC400A92B03D0D890AA37AB37A92FFBD7000183
:102CD400AA51AB11D8A403D00001AD2BE2D7080E42
:102CE400AD6103D0ADC055F002D0000E556E000E9C
:102CF400546E010E3D6E010E3E6E540E3B6E000E80
:102D04003C6E50C03FF051C040F020EE3AF000EE6F
:102D14007EF0060EDBCFEBFFE806FCE2960E000128
:102D2400856F010E866F4AC087F0C9EC18F0000960
:102D3400D8A404D001010A2B000E1200000E0101D8
:102D44000A6F010E1200000E3A6E3A8A0001A8B111
:102D540002D03A9601D03A86ACC055F0000E546EBB
:102D6400010E3D6E010E3E6E540E3B6E000E3C6E27
:102D740050C03FF051C040F020EE3AF000EE7EF03B
:102D8400060EDBCFEBFFE806FCE2960E0001856F32
:102D9400010E866F4AC087F0C9EC18F00009D8A468
:102DA40004D001010A2B000E1200000E01010A6F6B
:102DB400010E12004750D8B40BD00101A151D8B470
:102DC40007D0418648C0F7F1060E0001F56F04D024
:102DD400020E0001F56F4196DB51D8B43CD1000ED0
:102DE400F66F070EF66501D014D0F651010DF350BD
:102DF400D925D96EF450DA21DA6EF651010D1A0E86
:102E0400F324E16E010EF420E26EDFCFE7FFF62B30
:102E1400E8D7C6EC21F00001F76FF729D8A43DD01C
:102E24005BC096F1020E0101976F986999699A69DE
:102E34009B6950C09CF151C09DF152C09EF153C09A
:102E44009FF148C0A0F1482A000E3A6E3A8A000168
:102E5400DCB102D03A9601D03A86D9C03BF0DAC050
:102E64003CF0000E3D6E010E3E6E50C03FF051C06E
:102E740040F0419620EE3AF000EE7EF0060EDBCFF5
:102E8400EBFFE806FCE2960E0001856F010E866FEB
:102E94004AC087F0C9EC18F012000001F7510D0D7B
:102EA4000C0EF326000EF4223B0EF324D96E010E11
:102EB400F420DA6E0101DFA6B3D74750D8B411D09D
:102EC4000001F7510D0D020EF326000EF4223B0E05
:102ED400F324D96E010EF420DA6EDECF31F1DDCFAA
:102EE40032F1040E0101966FF5C097F10001F7511C
:102EF4000D0D3B0EF324D96E010EF420DA6EDF5073
:102F04000101986F0001F7510D0D010EF326000E1B
:102F1400F4223B0EF324D96E010EF420DA6EDF5056
:102F24000101996F0001F7510D0D020EF326000EF9
:102F3400F4223B0EF324D96E010EF420DA6EDF5036
:102F440001019A6F0001F7510D0D030EF326000ED7
:102F5400F4223B0EF324D96E010EF420DA6EDF5016
:102F640001019B6F50C09CF151C09DF152C09EF174
:102F740053C09FF148C0A0F1482A0001F7510D0D3C
:102F84003B0EF324D96E010EF420DA6EDECFA4F0EA
:102F9400DDCFA5F0F7510D0D020EF326000EF4223D
:102FA4003B0EF324D96E010EF420DA6EDECFA6F0C8
:102FB400DDCFA7F0DCC0A8F0B1EC14F00009D8A470
:102FC40002D04196120041A612004BEC25F060C0DD
:102FD400E5F061C0E6F062C0E7F063C0E8F07BECC6
:102FE40027F00009D8A499EC27F041A612004BEC75
:102FF40025F060C0E9F061C0EAF062C0EBF063C0A4
:10300400ECF0E5C0DDF0E6C0DEF0E7C0DFF0E8C0DC
:10301400E0F00001DD1FDE1FDF1FE01FDD2B000ECF
:10302400DE23DF23E023E951DD25E16FEA51DE21D0
:10303400E26FEB51DF21E36FEC51E021E46FE451E7
:1030440008E1210EE15DA10EE259070EE359D8A073
:10305400C6D741961200040E0101966FF5C097F190
:1030640050C098F151C099F1D9C0D9FFDAC0DAFF44
:10307400DF509A6F000120EE01F0D951D926DA51C0
:10308400DA22DF5001019B6F50C09CF151C09DF1C9
:1030940052C09EF153C09FF148C0A0F1482AD9C044
:1030A400D9FFDAC0DAFFDF50316F000120EE01F002
:1030B400D951D926DA51DA22DF500101326FD9C051
:1030C400D9FFDAC0DAFFDF50546E000120EE01F0C0
:1030D400D951D926DA51DA22DF50556E50C0A4F006
:1030E40051C0A5F054C0A6F055C0A7F0DCC0A8F0AC
:1030F400B1EC14F00009D8A402D04196120041A604
:1031040012004BEC25F060C0EDF061C0EEF062C03F
:10311400EFF063C0F0F07BEC27F00009D8A499EC41
:1031240027F041A612004BEC25F060C0F1F061C01D
:10313400F2F062C0F3F063C0F4F0EDC0DDF0EEC075
:10314400DEF0EFC0DFF0F0C0E0F00001DD1FDE1FB5
:10315400DF1FE01FDD2B000EDE23DF23E023F15110
:10316400DD25E16FF251DE21E26FF351DF21E36FE0
:10317400F451E021E46FE45108E1210EE15DA10E78
:10318400E259070EE359D8A0C6D741961200000EA3
:1031940000019C6F000E9B6F7EA502D0010E816F13
:1031A4007EA702D0000E826F7E51030BE806D8A4DE
:1031B40002D0030E06D07E51030B0009D8A402D01E
:1031C400010E996F585083190EE159508419D8A4EF
:1031D4000AD0582803E15928D8B405D0050E9A6FAF
:1031E400998D010E03D0070E9A6F000E986F8151CE
:1031F400D8B402D0020E01D0080E9A278251D8B456
:1032040002D0020E01D0080E9A277EBB7EB501D0F3
:10321400998B7E51030B030AD8A409D0000E996F31
:10322400070E9A6F000E986F010E826F7E9B9CC0F2
:1032340062F0636B9AC064F01EEC25F000019C2BD5
:103244009CC062F0636B9A518725646F1EEC25F075
:1032540000019C2B9CC062F0636B99C064F01EEC6F
:1032640025F000019C2B7E51030B030AD8A413D034
:103274009CC062F0636B800E646F1EEC25F000014D
:103284009C2B9CC062F0636B39C164F01EEC25F08A
:103294000101392B80D08151D8B40BD08251D8B4DC
:1032A40008D09CC062F0636B880E646F1EEC25F03E
:1032B40023D08151D8B40BD08251D8A408D09CC05B
:1032C40062F0636BC80E646F1EEC25F015D081515B
:1032D400D8A40BD08205D8A408D09CC062F0636B3C
:1032E4008C0E646F1EEC25F007D09CC062F0636BFB
:1032F400CC0E646F1EEC25F000019C2B9CC062F088
:10330400636B39C164F01EEC25F00101392B000117
:103314009C2B9CC062F0636B83C064F01EEC25F0B0
:1033240000019C2B9CC062F0636B84C064F01EECB3
:1033340025F000019C2B7EA511D09CC062F0636B2C
:10334400FF0E646F1EEC25F000019C2B9CC062F004
:10335400636BFF0E646F1EEC25F01DD08151D8B451
:103364001DD09CC062F0636B7FC0D9FF80C0DAFFC0
:10337400DF50646F1EEC25F000019C2B9CC062F0B2
:10338400636B20EE01F07F51D9268051DA22DF50A1
:10339400646F1EEC25F000019C2B19D0000E9B6F6E
:1033A400070E9B6501D013D09CC062F0636B9B51E8
:1033B400010DF3507F25D96EF4508021DA6EDF5071
:1033C400646F1EEC25F000019C2B9B2BE9D79851D0
:1033D400D8A412D09CC062F0636B58C064F01EEC99
:1033E40025F000019C2B9CC062F0636B59C064F013
:1033F4001EEC25F000019C2B8251D8B413D09CC044
:1034040062F0636B56C064F01EEC25F000019C2B47
:103414009CC062F0636B57C064F01EEC25F00001A1
:103424009C2B1BD0000E9B6F070E9B6501D015D003
:103434009CC062F0636B9B51010DF35001012F2579
:10344400D96EF4503021DA6EDF500001646F1EEC47
:1034540025F000019C2B9B2BE7D7000E9B6F12D00D
:103464009CC062F0636B9B51010DF3508525D96EAE
:10347400F4508621DA6EDF50646F1EEC25F00001F3
:103484009C2B9B2B87519B5DD8A0EAD74E807EBB9B
:103494007EB504D0050E9B6F4E8203D0010E9B6F48
:1034A4004E929BC062F0370E9EEC26F04BEC25F05A
:1034B40060C090F061C091F062C092F063C093F07C
:1034C40081A2F0804EB005D04EA444D04E94000E9C
:1034D40012004BEC25F060C094F061C095F062C01E
:1034E40096F063C097F090C088F091C089F092C0C4
:1034F4008AF093C08BF00001881F891F8A1F8B1FDD
:10350400882B000E89238A238B23945188258C6F62
:10351400955189218D6F96518A218E6F97518B21F8
:103524008F6F8F518E1106E1210E8C5D4E0E8D59D9
:10353400D8A0C6D770EC1CF0560E0001656F000EC3
:10354400666F580E676F000E686FBFEC24F04E90E4
:10355400000E1200010E12000101F66F030E0101AC
:10356400F56F0001F905D8A412D09DEC1DF006D02A
:103574007BEC27F00009D8A499EC27F00101C9B32A
:10358400F7D7C9A102D0CA511200FF0E12000001E0
:10359400F951D8A4A1D10101F629D8B406D026D076
:1035A4000101F52F02D0FF0E12005AC0E5F1010E01
:1035B400E66FE76BE86BE96BE52B05D0D890E6374F
:1035C400E737E837E937E52FF9D7E6C1D9F0E7C19E
:1035D400DAF0E8C1DBF0E9C1DCF00A0EC6EC1EF05B
:1035E4000009D8B4DDD7000E0101F66FF6510E0DB7
:1035F400090EF326000EF422000EF324D96E030EF6
:10360400F420DA6EDECFE3F1DDCFE4F1F6510E0DF6
:10361400010EF326000EF422000EF324D96E030EDD
:10362400F420DA6EDF50546EF6510E0D020EF326BE
:10363400000EF422000EF324D96E030EF420DA6E89
:10364400DF50556ECAEC23F0496E4928D8A408D03F
:1036540067EC26F0496E4928D8A402D0FF0E120068
:1036640049500D0D0C0EF326000EF4223B0EF324EC
:10367400D96E010EF420DA6E000EDF6E0101F651F0
:103684000E0D090EF326000EF422000EF324D96E5B
:10369400030EF420DA6E49500D0D3B0EF324E16E57
:1036A400010EF420E26EDECFE6FFDDCFE5FFF6513A
:1036B4000E0D010EF326000EF422000EF324D96E33
:1036C400030EF420DA6E49500D0D020EF326000E9F
:1036D400F4223B0EF324E16E010EF420E26EDFCF00
:1036E400E7FFF6510E0D020EF326000EF422000E33
:1036F400F324D96E030EF420DA6E49500D0D030E37
:10370400F326000EF4223B0EF324E16E010EF420A6
:10371400E26EDFCFE7FF49500D0D0C0EF326000ECD
:10372400F4223B0EF324D96E010EF420DA6EDF8608
:1037340049500D0D0C0EF326000EF4223B0EF3241B
:10374400D96E010EF420DA6EDF8249500D0D0C0E95
:10375400F326000EF4223B0EF324D96E010EF4205E
:10376400DA6EDF8A49500D0D0C0EF326000EF4229A
:103774003B0EF324D96E010EF420DA6EDF80F6518D
:103784000E0D000EF324D96E030EF420DA6EDF5012
:1037940019EC27F049500D0D3B0EF324D96E010EA0
:1037A400F420DA6EDECF50F0DDCF51F05468556866
:1037B400540E0001656F000E666F500E676F000EA9
:1037C400686FBFEC24F0000E4A6E4A50010D960E4D
:1037D400F324D96E010EF420DA6E010EDF6E4A2A4C
:1037E4004A50010D960EF324D96E010EF420DA6EC0
:1037F40037C1DFFF4A2A49500D0D3B0EF324000167
:103804009D6F010EF4209E6F49500D0D020EF3269C
:10381400000EF4223B0EF3249F6F010EF420A06FE0
:10382400010EA16F080EA26F1EEC22F04BEC25F0E6
:1038340060C0EDF161C0EEF162C0EFF163C0F0F180
:103844003AD07BEC27F00009D8A499EC27F04BEC94
:1038540025F060C0F1F161C0F2F162C0F3F163C020
:10386400F4F1EDC1E5F1EEC1E6F1EFC1E7F1F0C12C
:10387400E8F10101E51FE61FE71FE81FE52B000E35
:10388400E623E723E823F151E525E96FF251E62128
:10389400EA6FF351E721EB6FF451E821EC6FEC513F
:1038A40008E1210EE95DA10EEA59070EEB59D8A0F3
:1038B40002D0FF0E120049500D0D0C0EF326000E1F
:1038C400F4223B0EF324D96E010EF420DA6E0101CA
:1038D400DFA8B7D749501200FF0E12008C9E030ECA
:1038E4000001736F000E746F000E756F000E766F1B
:1038F4001BD09A0E6B6F020E6C6F000E6D6F000E74
:103904006E6F6B07000E6C5B6D5B6E5B6B29F9E190
:103914006C29F7E16D29F5E16E29D8A4F2D7730774
:10392400000E745B755B765B7351741175117611BF
:10393400D8A4DFD78C8E0A0E776F000E786F000E36
:10394400796F000E7A6F1BD09A0E6F6F020E706F34
:10395400000E716F000E726F6F07000E705B715B6B
:10396400725B6F29F9E17029F7E17129F5E1722998
:10397400D8A4F2D77707000E785B795B7A5B77512E
:10398400781179117A11D8A4DFD7070E626F550E1A
:103994009EEC26F0540E85EC26F000017D6F7DC070
:1039A4006AF0070E6A17D8A4F5D7000E7C6F000ED4
:1039B4007B6FE80E7B5D030E7C59D8B003D07B4B44
:1039C4007C2BF7D7010E626F1B0E9EEC26F0FF0EC8
:1039D4000001626F070E9EEC26F0FF0E0001626F7D
:1039E400090E9EEC26F0FF0E0001626F030E9EECA2
:1039F40026F0FF0E0001626F050E9EEC26F0000E0D
:103A040000017D6F070E7D6501D015D07D51010D3C
:103A1400F35001012F25D96EF4503021DA6EDF50B6
:103A24000001626F7D51020DF3500B0F9EEC26F0E6
:103A340000017D2BE7D7020E636F020E626F800ECA
:103A4400646F1EEC25F0020E0001636F030E626FBB
:103A5400000E646F1EEC25F0020E0001636F060E6B
:103A6400626F900E646F1EEC25F0020E0001636F0E
:103A7400070E626F800E646F1EEC25F0020E0001CB
:103A8400636F080E626F100E646F1EEC25F0020E59
:103A94000001636F200E626F210E646F1EEC25F02F
:103AA400800E0001626F750E9EEC26F0400E000140
:103AB400626F7D0E9EEC26F0600E0001626F7F0E39
:103AC4009EEC26F0980E0001626F310E9EEC26F0FB
:103AD400950E0001626F5D0E9EEC26F0020E000151
:103AE400636F0F0E626FF1EC24F000017D6F7D5166
:103AF400A00BA00AD8A4F2D7E60E626F650E9EEC66
:103B040026F0020E0001636F000E626F030E646FF5
:103B14001EEC25F0020E0001636F010E626F020EAF
:103B2400646F1EEC25F0000E0001686F010138512E
:103B34001FEC26F012000101C991020E4618D8A408
:103B4400D4D0C9B32ED04BEC25F060C0DFF161C0F6
:103B5400E0F162C0E1F163C0E2F1000E0101CC6F5B
:103B6400000ECB6F000E0001F86F070EF86501D050
:103B740014D0F851010DF80EF324D96E010EF4207F
:103B8400DA6EF851010DCD0EF324E16E010EF4202E
:103B9400E26EDFCFE7FFF82BE8D70101C983C991B3
:103BA4001200CB51CC11D8B412005250CB1904E1FD
:103BB4005350CC19D8B412000B0E4A6E4A50010D62
:103BC400960EF324D96E010EF420DA6E000EDF6E29
:103BD4004A2A4A50010D960EF324D96E010EF420A0
:103BE400DA6E110EDF6E4A2A000E0001F86F070E1E
:103BF400F86501D015D0F851010DF80EF324D96EF3
:103C0400010EF420DA6E4A50010D960EF324E16E93
:103C1400010EF420E26EDFCFE7FF4A2AF82BE7D744
:103C24004A50010D960EF324D96E010EF420DA6E7B
:103C340052C0DFFF4A2A4A50010D960EF324D96E72
:103C4400010EF420DA6E53C0DFFF4A2A000EF86F2B
:103C5400070EF86501D014D0F851010DCD0EF324F0
:103C6400D96E010EF420DA6EF851010D1A0EF32408
:103C7400E16E010EF420E26EDFCFE7FFF82BE8D708
:103C8400CBC154F0CCC155F0CAEC23F00101CA6F8A
:103C9400CA29D8B40FD0CA510D0D0C0EF326000E4C
:103CA400F4223B0EF324D96E010EF420DA6EDF50B9
:103CB4004B6E04D08C0E4B6E54AE4B8050C0E3F16F
:103CC40051C0E4F135EC20F00101CA6FCB0E0001C4
:103CD400D96F010EDA6F000EDB6F000EDC6FDCECC7
:103CE40016F00101C993C98112004BEC25F060C0A4
:103CF400DFF161C0E0F162C0E1F163C0E2F1000E06
:103D0400556E000E546E0B0E4A6E4A50010D960EFF
:103D1400F324D96E010EF420DA6E000EDF6E4A2A07
:103D24004A50010D960EF324D96E010EF420DA6E7A
:103D3400100EDF6E4A2A000E0001F86F070EF865B8
:103D440001D015D0F851010DF80EF324D96E010EEF
:103D5400F420DA6E4A50010D960EF324E16E010E42
:103D6400F420E26EDFCFE7FF4A2AF82BE7D7540EA0
:103D7400D96F000EDA6F000EDB6F000EDC6FDCEC27
:103D840016F00101C98312000001F66F010E000153
:103D9400EA6F000EEB6F000EEC6F000EED6F5AC071
:103DA400F7F0000EF86F090EF86501D00CD0F85149
:103DB4000E0D000EF324D96E030EF420DA6EFF0EFE
:103DC400DF6EF82BF0D7000E4C6E4180000EF86FBA
:103DD400ADD0F8C0DDF0EAC0DEF0EBC0DFF0ECC03F
:103DE400E0F0EDC0E1F0DD2B05D0D890DE37DF3711
:103DF400E037E137DD2FF9D7D951DE15E26FDA511B
:103E0400DF15E36FDB51E015E46FDC51E115E56F7D
:103E1400000EE215E66FF80EE315E76FFF0EE415EA
:103E2400E86F070EE515E96FE651E711E811E911AE
:103E3400D8B47BD0F85119EC27F0000E4A6E4A50E2
:103E4400010D960EF324D96E010EF420DA6E070EDE
:103E5400DF6E4A2A4A50010D960EF324D96E010EE4
:103E6400F420DA6E5AC0DFFF4A2A0101E369E469EB
:103E7400E30E00019D6F010E9E6F000E9F6F000EFA
:103E8400A06F010EA16F000EA26F1EEC22F04BEC8E
:103E940025F060C0EEF061C0EFF062C0F0F063C0E6
:103EA400F1F07BEC27F00009D8A499EC27F04BEC57
:103EB40025F060C0F2F061C0F3F062C0F4F063C0BA
:103EC400F5F0EEC0DDF0EFC0DEF0F0C0DFF0F1C0E1
:103ED400E0F00001DD1FDE1FDF1FE01FDD2B000E01
:103EE400DE23DF23E023F251DD25E16FF351DE21F0
:103EF400E26FF451DF21E36FF551E021E46FF651F5
:103F0400040D010EF324F66E0F0EF420F76EE1514A
:103F14000900F55CE2510900F558E3510900F55830
:103F2400E4510900F558D8B0BCD7F82B1F0EF8653A
:103F340050D7F75119EC27F041904C501200000172
:103F4400836F52685368100E516E100E506E000E3F
:103F54000001876F060E876501D010D087510D0DC3
:103F64000C0EF326000EF4223B0EF324D96E010E40
:103F7400F420DA6E000EDF6E872BECD7000E876F0D
:103F8400070E876501D016D08751010D120EF32458
:103F9400D96E010EF420DA6E000EDF6E8751010D2A
:103FA4000A0EF324D96E010EF420DA6E000EDF6ED1
:103FB400872BE6D7000E0101366F000E466E000E09
:103FC400426E000E416E000EC96F000E376F68EC32
:103FD40027F0000E4A6E000E0001846F8451870B97
:103FE4004009846F848383B102D0849502D0000198
:103FF4008485F80E856F010E866F84C07EF085C0BF
:104004007FF086C080F045EC26F0520E0001656F0B
:10401400000E666F500E676F000E686FBFEC24F0E1
:104024005A5019EC27F0010137814DC082F000018C
:10403400823B0101375100018219CF0B8219010122
:10404400376F378D46C082F0000182470101375136
:1040540000018219F90B82190101376FD6CF48F09C
:10406400F090F0861200000169694BA403D0C6ECFD
:1040740021F004D04BA604D0CAEC23F00001696FF0
:104084006929D8A404D067EC26F00001696F692976
:10409400D8B456D069510D0D0C0EF326000EF4223F
:1040A4003B0EF324D96E010EF420DA6E4BC0DFFF11
:1040B4004BA428D0000E686F070E686501D022D08B
:1040C4006851010D1A0EF324D96E010EF420DA6E34
:1040D4006851010D040EF326000EF4223B0E666FA8
:1040E400010E676FF3506627F450672369510D0D75
:1040F400F3506625E16EF4506721E26EDFCFE7FFEF
:10410400682BDAD74BA610D069510D0D020EF32699
:10411400000EF4223B0EF324D96E010EF420DA6E65
:1041240054C0DEFF55C0DDFF69510D0D3B0EF32475
:10413400D96E010EF420DA6EE3C1DEFFE4C1DDFFC7
:104144006951120042EC23F050EC27F0000EA1EC70
:104154001FF00B0E19EC27F0000ECDEC26F0000E2C
:104164000001D96F080EDA6F000EDB6F000EDC6FF2
:104174000A0EC6EC1EF00001FB6FFB51D8A418D048
:10418400000E696F000E6A6F000E6B6F000E6C6F8D
:10419400000E6D6F000E84EC24F00001FA6F00F045
:1041A4005B0E0001616F0F0E626FF8EC25F00ED00C
:1041B400000E0001F96F000EAEEC1AF00001FB6F67
:1041C400B80E616F0F0E626FF8EC25F073EC27F0F8
:1041D400C40E0001616F0F0E626FF8EC25F07BECEA
:1041E40027F0E806D8A4F4D773EC27F00B0E4A6E38
:1041F4004A50010D960EF324D96E010EF420DA6EA6
:10420400F00EDF6E4A2AC60E0001616F0F0E626F58
:10421400F8EC25F0DDD7000E4A6E4A50010D960EDB
:10422400F324D96E010EF420DA6EFF0EDF6E4A2AF3
:104234004A50010D960EF324D96E010EF420DA6E65
:1042440037C1DFFF4A2A4A50010D960EF324D96E76
:10425400010EF420DA6E000EDF6E4A2A4A50010D78
:10426400960EF324D96E010EF420DA6E000EDF6E82
:104274004A2A4A50010D960EF324D96E010EF420F9
:10428400DA6E4D0EDF6E4A2A4A50010D960EF32463
:10429400D96E010EF420DA6E410EDF6E4A2A4A50BE
:1042A400010D960EF324D96E010EF420DA6E36C198
:1042B400DFFF4A2A500E00019D6F000E9E6F000E14
:1042C4009F6F000EA06F030EA16F040EA26F1EEC71
:1042D40022F0120001013551445CD8A004D04550AD
:1042E400435CD8B0120071B0FED701013551445C73
:1042F400D8B01AD04450010D220EF324D96E010E09
:10430400F420DA6EDF50756E442A35514418D8A46F
:1043140012004550D8A412007184010E0E6E2C0EAA
:104324000D6EFCEC22F012004550435CD8B0120034
:104334004350010DC00EF324D96E020EF420DA6E40
:10434400DF50D8A40AD04350010DC00EF324D96E17
:10435400020EF420DA6E200EDF6E4350010DC00E03
:10436400F324D96E020EF420DA6EDF50756E432A00
:1043740045504318D8A412007184010E0E6E2C0E01
:104384000D6EFCEC22F01200000E0001656F060EAB
:10439400656501D04FD065510D0D0C0EF326000E4E
:1043A400F4223B0EF324D96E010EF420DA6E0101DF
:1043B400DFAE3DD0000165510D0D0C0EF326000E4D
:1043C400F4223B0EF324D96E010EF420DA6E0101BF
:1043D400DFA42DD0000E0001646F070E646501D0C8
:1043E40024D06451010D1A0EF324D96E010EF42069
:1043F400DA6E6451010D040EF326000EF4223B0E16
:10440400616F010E626FF3506127F45062236551AE
:104414000D0DF3506125E16EF4506221E26EDE5021
:10442400E618D8A404D0642BD8D765511200000133
:10443400652BADD7FF0E1200000E3A6E3A50000104
:10444400A119FC0BA1193A6E9F51A011D8B43A845A
:104454003AB403D0A36BA32B02D00001A36BA33BFC
:10446400A3473A50A319DF0BA3193A6E3A8E9FC0A3
:104474003BF0A0C03CF0A2A702D0010E01D0000E78
:104484003D6EA2A502D0010E01D0000E3E6E9DC06D
:10449400D9FF9EC0DAFFDF503F6E20EE01F09D5140
:1044A400D9269E51DA22DF50406E20EE3AF000EE1B
:1044B4007EF0060EDBCFEBFFE806FCE2960E856F7E
:1044C400010E866F4AC087F0C9EC18F01200000193
:1044D4007A6F7AC060F0D650B6EC26F000017B6F9C
:1044E4003CD07B074BEC25F060C072F061C073F0E8
:1044F40062C074F063C075F04BEC25F060C076F0D8
:1045040061C077F062C078F063C079F072C06AF07D
:1045140073C06BF074C06CF075C06DF000016A1F5D
:104524006B1F6C1F6D1F6A2B000E6B236C236D2396
:1045340076516A256E6F77516B216F6F78516C21BC
:10454400706F79516D21716F7151701106E1F50E23
:104554006E5D010E6F59D8A0CFD77B51D8B412002D
:10456400C0D7000E00016E6F000E6F6F000E706FEB
:10457400000E716F6CC060F06DC061F0626B636BB4
:10458400A00E646F0F0E656F000E666F000E676FEE
:1045940078EC25F060C06EF061C06FF062C070F01E
:1045A40063C071F0560E00016E27FF0E6F23FF0EDD
:1045B4007023FF0E712371BF1200715170116F11BE
:1045C4000FE1C40E6E5DD8A012000AD000F0D90E1F
:1045D40000016E27FF0E6F23FF0E7023FF0E712361
:1045E40071BF1200715170116F11F0E16E05D8A006
:1045F4001200ECD7000E0F6E000E106E000E116E3E
:10460400000E126E0DC001F00EC002F0036A046ABF
:10461400A00E056E0F0E066E000E076E000E086EDD
:10462400A4EC25F001C00FF002C010F003C011F09B
:1046340004C012F0560E0F26FF0E1022FF0E112298
:10464400FF0E122212BE12001250111010100EE1B1
:10465400C40E0F5CD8A0120009D000F0D90E0F26AA
:10466400FF0E1022FF0E1122FF0E122212BE1200A4
:10467400125011101010F1E10F04D8A01200EDD760
:10468400780ED36EC0909B8C000EF26E550EA76E02
:10469400AA0EA76E0E01FF91040EE76F130EF66FBC
:1046A400050ED76F550EA76EAA0EA76EFF810F01D8
:1046B40048693F0E496FF19E9268936894689568C3
:1046C4009668000E896E000E8A6E000E8C6E000EC7
:1046D4008D6E938093849294929693968A86959EF7
:1046E4008C8E9382938A949E9398C00EC76E210EEB
:1046F400C66E95968C86F19A94948B84F28EF09083
:10470400F0860BEC24F01200040E0101966F020EE9
:10471400976F50C098F151C099F1AEC0D9FFAFC0A6
:10472400DAFFDF509A6F000120EE01F0AE51D92676
:10473400AF51DA22DF5001019B6F50C09CF151C090
:104744009DF152C09EF153C09FF148C0A0F1482A88
:10475400AEC0D9FFAFC0DAFFDF50546E000120EEC7
:1047640001F0AE51D926AF51DA22DF50556E50C058
:10477400A4F051C0A5F054C0A6F055C0A7F0000E97
:10478400A86FB1EC14F00009D8A4120041961200ED
:10479400000E0001626F060E626501D038D06251CE
:1047A4000D0D0C0EF326000EF4223B0EF324D96EED
:1047B400010EF420DA6E0101DFAE26D00001625151
:1047C4000D0D0C0EF326000EF4223B0EF324D96ECD
:1047D400010EF420DA6E0101DFA616D00001625149
:1047E4000D0D020EF326000EF4223B0EF324D96EB7
:1047F400010EF420DA6E5450DE1806E15550DE182E
:10480400D8A402D0625112000001622BC4D7FF0E5B
:104814001200530E9512A49E000E736EF00E746E69
:10482400280E726E000E716EA38EF28EF28C010E43
:1048340000016D6F2C0E6C6FB3EC22F07C0E010145
:10484400226F810E236F000E246F000E0001606F33
:10485400030E0BEC27F0000E00016D6FC80E6C6F99
:10486400B3EC22F07C0E0101226F510E236F080E6F
:10487400246F000E0001606F030E0BEC27F0000E96
:1048840000016D6FC80E6C6FB3EC22F01200280E9D
:10489400F66E4F0EF76E000EF86E01EEF7F010EEA6
:1048A40009F00900F5CFEEFFE550E150FAE13A0EC8
:1048B400F66E4F0EF76E000EF86E0900F5CF5BF042
:1048C4000900F5CF5CF003EE00F08C0EEE6AE8060A
:1048D400FDE102EE00F0E10EEE6AE806FDE101EE14
:1048E40000F0E50EEE6AE806FDE100EE2FF02C0E76
:1048F400EE6AE806FDE15D905D92000EF86E00013F
:10490400A4EF20F000016F6F2BD0000E536E000E49
:10491400526E4968100E516E100E506E520E000108
:10492400656F000E666F500E676F000E686FBFEC08
:1049340024F04182020E466E46C06EF000016E47BE
:104944000101375100016E19F90B6E190101376F1E
:10495400010E366F010E1200000E1200000E12003E
:1049640000016F51000AD8B4D0D7010AD8B4F4D7E3
:10497400030AD8B4F3D7000E120065C0D9FF66C08D
:10498400DAFFDF50566E000120EE01F06551D926A2
:104994006651DA22DF50576E67C0D9FF68C0DAFF6C
:1049A400DF50586E20EE01F06751D9266851DA22A3
:1049B400DF50596E56C062F0070E9EEC26F057C0C9
:1049C40062F0090E9EEC26F058C062F0030E9EECD5
:1049D40026F059C062F0050E9EEC26F01200000E7F
:1049E400F0B6010E0001676FF0968A9662C064F01B
:1049F40063C065F0D89065336433D890653364330D
:104A0400D8906533643364517F0B800927EC27F019
:104A140000016239E846E00BE00B27EC27F08AEC52
:104A240027F00001666F8A8667B102D0F09601D044
:104A3400F086000166511200000EF0B6010E00016E
:104A4400676FF0968A9662C065F063C066F0D8908E
:104A540066336533D89066336533D89066336533EF
:104A640065517F0B800927EC27F000016239E84685
:104A7400E00BE00B100927EC27F00001645127EC50
:104A840027F08A86000167B102D0F09601D0F08643
:104A940012009D90000E0001686F000E696F000EF9
:104AA400656FCECF66F0CFCF67F0662909E167293D
:104AB400D8A406D0652B6505646F020E6465F1D732
:104AC4009EA004D0682B4F28D8B4692B4F50682778
:104AD40001013A51000169279D8066C060F067C0FA
:104AE40061F068C062F069C063F01200000E00015A
:104AF400686F000E696F000E6A6F000E6B6F60A125
:104B040008D0645168276551692366516A23675147
:104B14006B23D8906437653766376737D89063332B
:104B24006233613360336051611162116311D8A43F
:104B3400E6D768C060F069C061F06AC062F06BC01B
:104B440063F01200000E096E000E0A6E000E0B6E6A
:104B5400000E0C6E01A008D00550092606500A224A
:104B640007500B2208500C22D8900536063607361B
:104B74000836D89004320332023201320150021056
:104B840003100410D8A4E6D709C001F00AC002F04B
:104B94000BC003F00CC004F01200000EF0B6010EBE
:104BA400086EF0968A9603C005F004C006F0D8900B
:104BB40006320532D89006320532D89006320532D4
:104BC40005507F0B800943EC27F00338E846E00BDF
:104BD400E00B43EC27F08FEC27F0076E8A8608B0D1
:104BE40002D0F09601D0F08607501200000E0001AA
:104BF400666F000E656F11D065516125636F665154
:104C04006221646F63C0F6FF64C0F7FF0800F550CB
:104C140083EC27F00001654B662B65516125636FBA
:104C240066516221646F63C0F6FF64C0F7FF080039
:104C3400F5500009D8B41200DFD70001696F0A0EDD
:104C44000001696503D01A0E696502D0000E1200D6
:104C540069C038F1020E636F000E626F6939F00BA0
:104C6400500F0309646F1EEC25F0040E0001626FFF
:104C74006D0E9EEC26F0000E0001626F6D0E9EEC30
:104C840026F0010E12007EC02EF17FC02FF180C0ED
:104C940030F1D6CF39F10B0E0101386F70EC1CF0F6
:104CA400000E4E6E000E0001816F010E816501D071
:104CB40012008151500D200EF324D96E020EF420FF
:104CC400DA6E000EDF6E812BF0D7000E0001606FEC
:104CD400060E606501D015D060510D0D0C0EF32643
:104CE400000EF4223B0EF324D96E010EF420DA6E8A
:104CF4000101DFBE03D00001605112000001602BEE
:104D0400E7D7FF0E12000001626F000EF0B6010E2D
:104D14000001646FF0968A96625127EC27F08AECC2
:104D240027F00001636F8A8664B102D0F09601D047
:104D3400F0860001635112000001636F000EF0B6AB
:104D4400010E0001646FF0968A96635127EC27F0F8
:104D54000001625127EC27F08A86000164B102D079
:104D6400F09601D0F08612000001616F080E000178
:104D7400626F000E636FD89061356335636FD890AE
:104D840061376051635DD8A002D06051635F622FC8
:104D9400F2D7635112000001616F030E00016165D7
:104DA40001D0120061C04DF04DC060F0603B0101C4
:104DB400375100016019CF0B60190101376F1200E0
:104DC400036E000EF0B6010E056EF0968A9603503F
:104DD40043EC27F08FEC27F0046E8A8605B002D0EE
:104DE400F09601D0F08604501200046E000EF0B666
:104DF400010E056EF0968A96045043EC27F003509A
:104E040043EC27F08A8605B002D0F09601D0F086F4
:104E140012000001616F71B4FED7000E446E000EE3
:104E2400436E61C035F160C045F07180120000012D
:104E34006A6F000E0001686F6A511FEC26F00009CA
:104E4400D8B412006AC05AF012000001616F9E9635
:104E5400C9CF60F0C69E61C0C9FFC6BEFBD79EA67F
:104E6400FED79E961200020E5C6012005C50500D3C
:104E7400200EF324D96E020EF420DA6E000EDF6EDB
:104E84001200026E9E96C9CF01F0C69E02C0C9FFF1
:104E9400C6BEFBD79EA6FED79E961200949C958410
:104EA4007E96000E7D6E330EAB6E240EA86E900EB1
:104EB4009C6E1200A4AE1200A49E6CEC21F0000EB5
:104EC4000E6E050E0D6EFCEC22F01200380ECD6E47
:104ED4009E909D80CD80000E4F6E000E01013A6FB2
:104EE4001200DE0E0001616F0F0E626FF8EC25F008
:104EF4001200FAEC07F041A402D0010E1200000ED9
:104F040012000001606FA8A2FED760C0A9FF1200C2
:104F1400000E27EC27F0C9501200000E43EC27F0D6
:0D4F2400C9501200FF0211223344556611DE
:0A4F3200419435EC27F0120004FF53
:08FFF800ACF5DDFFFFF9FFF19C
:00000001FF
